:020000041008E2
:10000000000008285DAC081011B708108DB2081068
:1000100015B7081019B708101DB708100000000028
:1000200000000000000000000000000021B30810E4
:1000300021B708100000000025B7081029B70810E4
:10004000E3AA081009AB08102FAB081055AB081035
:100050007BAB0810A1AB0810C7AB0810EDAB0810C4
:100060002DB7081031B7081035B7081039B7081088
:100070003DB7081041B7081045B7081049B7081038
:1000800040F0200070472DE9F14FB0B09246049146
:100090000DF142013A9A2B9199464A7000200AE0EC
:1000A0001AF8011B0498309A90470028049000F039
:1000B00034860D98401C0D909AF8000050B1252808
:1000C000EED1002100220791089209910A920B912A
:1000D0000C9204E00D9800F022BE41F001011AF8E4
:1000E000010F2028F9D023280CD02B2804D02D284C
:1000F00005D0302809D00BE041F00201EFE741F0D4
:100100000401ECE741F00801E9E741F01001E6E7FE
:100110002A280FD1D9F8002052F8040BC9F8002082
:1001200000280F9003D540420F9041F004010AF1DE
:10013000010A14E00F92DFF8EC3B0AE00F989842B6
:1001400005DA00EB800402EB4402303A0F920AF128
:10015000010A9AF80020A2F130000A28EED39AF89A
:1001600000002E2803D04FF0FF320E9229E01AF83B
:10017000010F2A2809D1D9F8000050F8042BC9F83A
:1001800000000E920AF1010A1BE02D280CBF0AF1B3
:10019000010A002000220E92DFF8884B0BE040B9E4
:1001A0000E9AA24205DA02EB820503EB4503303BCF
:1001B0000E930AF1010A9AF80030A3F130020A2ADC
:1001C000EDD3ADF840100FF660309AF8001000F053
:1001D000EDFE08B11AF8010B8DF842009DF84200BF
:1001E000682805D19AF8000068280CD1622106E041
:1001F0006C2804BF9AF800006C2804D171218DF896
:1002000042100AF1010A12A806901AF801BBBBF1CC
:1002100025012CD01C3900F09481091F022940F2DD
:100220009081133900F0AB84093900F08A81891E6E
:1002300000F04085491E00F0ED84491E022940F27D
:100240008081091F00F0E684491F00F0EF80491EFD
:1002500000F09584491E00F0D780C91E0CD0891E7D
:1002600000F08D84C91E00F08A8400F02EBD0123A9
:100270000793252100F026BDD9F8000050F8044B63
:10028000C9F80000002C059440F0AB802B99487809
:10029000002800F0A1804FF0FF340FF6942000F00A
:1002A00095FE241A40F0398500F01BBD01236A46F3
:1002B00002A9304600F000FE002840F02E85641EA2
:1002C000F4D13096079C12AF74B1309E17F8011B21
:1002D0000498B0470028049000F01F850D98401C3A
:1002E000641E0D90F2D130960A9C3021002C8DF8BE
:1002F00000100CDD309E01236A4602A9304600F052
:10030000DBFD002840F00985641EF4D13096059F7E
:10031000089C74B1309E17F8011B0498B047002860
:10032000049000F0FA840D98401C641E0D90F2D1E8
:1003300030960B9C3021002C8DF800100CDD309E87
:1003400001236A4602A9304600F0B6FD002840F0BD
:10035000E484641EF4D1309605980899099C4718E6
:1003600074B1309E17F8011B0498B0470028049020
:1003700000F0D3840D98401C641E0D90F2D130968D
:100380000C9C3021002C8DF800100CDD309E0123D8
:100390006A4602A9304600F08FFD002840F0BD8477
:1003A000641EF4D130969DF8400041077FF584AE7D
:1003B0002020002D8DF800007FF77EAE309C0123B9
:1003C0006A4602A9204600F077FD002840F0A58487
:1003D0006D1EF4D130946FE60FF63C30059000F0BE
:1003E00080BC0E9D002D04D5204600F00FFE044673
:1003F00007E02A46204600F025FE002814BF041B13
:100400002C46089400F06DBCD9F8001051F8040B8C
:10041000C9F8001020F00004002121F0FF35CDE9DB
:10042000024512AB0593782100F040BC2B99487827
:1004300020B14FF0FF340FF6B02030E79DF84200B6
:10044000622860D0682817D06A283FD06C2806D070
:10045000712847D074282CD07A281DD062E0D9F8B2
:10046000001051F8040BC9F80010002866D14FF0B5
:10047000FF340FF68C2012E7D9F8001051F8040B66
:10048000C9F8001020B94FF0FF340FF6742006E7CA
:100490000D99018000F025BCD9F8001051F8040B2B
:1004A000C9F80010002849D14FF0FF340FF6502052
:1004B000F5E6D9F8001051F8040BC9F8001000282F
:1004C0003CD14FF0FF340FF63820E8E6D9F80010A1
:1004D00051F8040BC9F8001080B94FF0FF340FF643
:1004E0002020DCE6D9F8001051F8040BC9F8001000
:1004F00020B94FF0FF340FF60820D0E60D9AD3173D
:10050000C0E90023EDE3D9F8001051F8040BC9F855
:10051000001020B94FF0FF340FF6E410BFE60D993C
:100520000170DEE3D9F8001051F8040BC9F800108F
:1005300020B94FF0FF340FF6C810B0E60D990160F6
:10054000CFE39DF842004C2807BFD9F80010CA1D20
:10055000D9F80000C21D22F00702C9F80020D2E934
:1005600000010832C9F80020CDE90201C80F02D00D
:1005700007982D210AE0BDF84000810702D50798B1
:100580002B2103E0C00705D50798202112AA11549A
:10059000401C079012A807994BF0200300EB010CB8
:1005A000DDE90201CDE92C01612BCDF814C021ACAD
:1005B0000BD00E98002848BF062105D404BF4BF08D
:1005C0002000672801D101210E91DDE902014F00D1
:1005D00047EAD0777E15FF174FF0FF32974208BFEA
:1005E000964210D1090341EA10510003002908BFC7
:1005F000002808D0ABF1610503211A2D089118D30A
:100600000FF61C1110E0DDE902014A00521512F14B
:10061000010F11D108030FD1ABF1610503211A2D90
:1006200008911FD30FF600110322604600F036FD3B
:1006300057E30FF6E801F7E7DDE902016A4600F04B
:1006400081FDCDE902014BF02000612811D1059810
:1006500030210170821C0592BBF1610F0CBF782123
:10066000582102E00FF6BC01DEE741700798801CBC
:100670000790DDE9020120F0000231F0004308BFDD
:10068000002A02D10026002542E14BF02008B8F1F3
:10069000610F40F092800E98002847BF2121019100
:1006A000401C0190019FDDE92C017F1C00220023EA
:1006B000DDE9024500F07EFD38BF85F00045009978
:1006C0008DF88420091F002F00910DF1850632DD81
:1006D000204629460022002300F086FD2BD21C2252
:1006E00000F09CFD04460D4600F01AFEFF1F002F8F
:1006F000804609DD00F01BFE02460B4620462946D7
:1007000000F01CFE04460D46F01D0721B8F1000F55
:100710000CDD491E5EBF08F00F0200F8012D4FEA04
:100720002818F3D502E0002200F8012D491EFAD561
:10073000C61D002FCCDC0DF18500361A01980DF195
:1007400085048642D8BF304600282FD4B04206DA4E
:100750000DF185010A5C082AA8BF0F2100DA0021EB
:10076000024621AB134400E0401E13F80159521E0B
:100770008D42F9D00F2904D10DF185018B5C5B1CF2
:100780008B54002A04D50099091D21AC401C00910E
:10079000411E0BD4621813783033DDB23A2DA4BF5A
:1007A0005B443A3B491E02F80139F4D50E99002901
:1007B00040F1AC80421E0E92A8E00099DFF8E826D6
:1007C00047F29750414391FBF2F20092DDE92C454C
:1007D000C2F10702002A25F0004504DD2046294623
:1007E00000F03EFB0BE052420020DFF8C01600F0A4
:1007F00037FB02460B462046294600F0A8FD04467A
:100800000D46B8F1660F06BF009F0A3706270E98FF
:100810003F18142FC8BF142730208DF884000DF125
:100820008506002F34DD2046294600F099FD01465B
:100830000A4606F1080304200A26B2FBF6F606EB88
:10084000860EA2EB4E02303203F8012C0A22B6FBD0
:10085000F2F202EB820EA6EB4E063036401E03F893
:10086000026DE9D1083F002F03F10806D9DD0846E3
:1008700000F07DFD02460B462046294600F05EFD55
:100880000022DFF82C3600F079FD04460D46CAE759
:100890000DF18500361A0DF1850404E00098401E24
:1008A000761E0090641C20783028F7D0B8F1660FCF
:1008B00002D10098401C04E0B8F1650F0CBF012084
:1008C00000200E9940188642B8BF701E00281DD423
:1008D000B04204DA215C3429C8BF392100DC302160
:1008E0000246631E9D1800E0401E15F80169521E65
:1008F0008E42F9D0392902D1A15C491CA154002AA9
:1009000004D50099491C1C46401C00910646009DD8
:100910000E9F30B2002802DC01260FF210644BF06B
:100920002000662808BF6D1C15D067280FFA85F8CF
:1009300041D118F1040F44DBB84542DA9DF840007C
:100940006D1C010703D430B2B842D8BF074628B2A5
:100950003F1A48BF00270FFA85F8B8F1000F00F3DF
:10096000AF800898411C0891302205990A54002F45
:1009700003DC9DF84000010705D50898411C08914B
:100980002E2205990A5417EB080FB8BF7D422DB2ED
:100990006842ED1932B20B909542B8BF2E46059BC6
:1009A000089836B2099632462146184400F076FB84
:1009B000AD1B0C95CCE0BBF1610F15D14FF0700B66
:1009C00017E030B2B84204DA9DF840100A0758BF69
:1009D00007467F1E48BF0027BBF1670F14BF4FF0CB
:1009E000450B4FF0650B04E0BBF1410F08BF4FF022
:1009F000500B0898411C0891002F059914F8012B01
:100A00000A5403DC9DF84000010719D50898411CE1
:100A100008912E2205990A54002F11DD761E30B25E
:100A20008742B8BF3E460598089B32B2214618441B
:100A300000F034FB089836B23018BF1B08900B97B3
:100A4000059808990844B8F1000F80F800B003D465
:100A50002B224270821C04E02D2145464170821CED
:100A60006D4200212CAB28460AE004460A2094FB84
:100A7000F0F000EB8005A4EB450403F8014B491CA2
:100A800000B20028F1DC012906DC4BF020006528CB
:100A900004BF302002F8010B00292CAB08D1302014
:100AA00002F8010B06E0491E585C303002F8010BD9
:100AB0000029F8DC059908980844121A099247E0C1
:100AC00030B229B288421BDA0598089B32B221461F
:100AD000184400F0E3FA089936B271180891A8EBAF
:100AE0000600002F0B9003DC9DF84000020705D59F
:100AF000059A2E2050540999491C09910C9727E01A
:100B00000598089B2AB22146184400F0C7FA0898B5
:100B1000761B4044002F089003DC9DF840100A0724
:100B200004D5411C08912E2205990A5430B28742FF
:100B3000B8BF3E460598089B32B204EB0801184442
:100B400000F0ACFA089836B23018BE1B08900B962D
:100B50009DF8400000F01400102840F0C280079A71
:100B600008980B99821809988A1882180C980F997E
:100B70008018884280F2B580081A0A90B1E09DF88A
:100B80004200622808D068280ED06A2814D06C2849
:100B90001FD0712810D01CE0D9F8001051F8040BB8
:100BA000C9F80010C0B21AE0D9F8001051F8040BCF
:100BB000C9F8001080B212E0D9F80000C21D22F07E
:100BC0000702C9F80020D2E900010832C9F8002064
:100BD00006E0D9F8001051F8040BC9F80010002104
:100BE000CDE902019DF8400001075AD5DDE9022355
:100BF000002B08BF002A54D04BF02000782850D199
:100C0000079812A930220A54401C431C079301F88C
:100C100000B046E09DF84200622808D068280ED057
:100C20006A2814D06C281FD0712810D01CE0D9F885
:100C3000001051F8040BC9F8001040B21AE0D9F8BE
:100C4000001051F8040BC9F8001000B212E0D9F8F6
:100C50000000C21D22F00702C9F80020D2E90001FD
:100C60000832C9F8002006E0D9F8001051F8040B4A
:100C7000C9F80010C117CDE90201002902D5079873
:100C80002D210AE0BDF84000810702D507982B21ED
:100C900003E0C00705D50798202112AA1154401C73
:100CA000079012A8079901440591594602A800F03F
:100CB0004DF816E001200790D9F8000050F8041B09
:100CC000C9F800008DF848100BE001212522BBF186
:100CD000000F07918DF8482003D0022207928DF86B
:100CE00049B00F9D07990A986D1A08992D1A0B980B
:100CF0006D1A09992D1A0C986D1A9DF840102D1A2D
:100D000048073FF5DFAA2021002D8DF800107FF75E
:100D1000D9AA309E2C46FFF7C9BA4FF0FF3031B048
:100D2000BDE8F08FCBCCCC0C686A6C747A4C0000B8
:100D30007072696E74665F733A2062616420257315
:100D400020617267756D656E740000002DE9FC47C7
:100D500007468A463C6950466F2808BF082505D0DB
:100D6000FFF78EF9782814BF0A251025D7E900016E
:100D70003C2680468946BAF1640F18BFBAF1690F64
:100D800005D1002903D5D8F1000869EB4909B9F16B
:100D9000000F08BFB8F1000F0CD1386B50B9082D07
:100DA0003AD197F83800010736D530223B2684F82F
:100DB0003B2031E08DF800A0404649462A46EB171B
:100DC00000F0E6FA3032D0B2761E3A2801960EDAFA
:100DD000A255404649462A46EB1700F0D9FA80460C
:100DE0005FEA010908BFB8F1000F05D108E09DF8DE
:100DF00000001218513AEBE7F868A1198842DBD3DA
:100E0000082D09D197F83800010705D5A05D3028D5
:100E100002D0761E3020A055C6F13C03BB61A1195B
:100E2000F960386B834208DAC31A3B624FF6EF7001
:100E3000398F01403987BDE8F38700280ED597F830
:100E4000380000F01400102808D17A6B7969386AEC
:100E5000521A121AD21A002AC8BF3A62BDE8F387A2
:100E60002DE9D04306460F4614464FF00008DFF840
:100E7000449012E0E00707D542464B4630463946DB
:100E800000F07CFA06460F464046494642464B462D
:100E900000F074FA641080468946002CEAD130468E
:100EA0003946BDE8D0830000A08601000000F03F75
:100EB00084D7974100002440F8B505460E461746F2
:100EC0001C4600205CB117F8011BB068A847B06051
:100ED00030B1F06A401CF0620020641EF3D1F2BD14
:100EE0004FF0FF30F2BD00007072696E74665F7380
:100EF0003A20256E20646973616C6C6F77656400BD
:100F00007072696E74663A2062616420256E206199
:100F10007267756D656E7400000000006E616E0092
:100F20004E414E00696E6600494E46003000F0B4F6
:100F30000246106895681318506803EB5004C00708
:100F400048BF4D44A3422DD013F8016B16F00300A7
:100F500004BF13F8010BC01C31090F2907D113F886
:100F6000011B0F3103E013F8017B05F8017B401EE4
:100F7000F9D10029E6D013F8010BC6F38106032E40
:100F800008BF13F8016B00EB0620404228440026FE
:100F9000B71E8F421EBF10F8017B05F8017B761C3F
:100FA000F6D1CFE7F0BC02F10C007047C9B202786D
:100FB0008A421AB11CBF10F8012FF9E718BF0020B0
:100FC00070470268531C03601170704780B500B908
:100FD00006A005490B681BB122220021984701E0B9
:100FE00000F0EEFA222002BD281C0228636F6E7307
:100FF000747261696E742068616E646C65723A2007
:10100000626164206D6573736167650000F10103BF
:10101000810704D010F8011B820781B1FAD1026860
:10102000A2F10131914311F0803104BF50F8042F37
:10103000F6E709BAB1FA81F100EBD100401CC01A01
:1010400070470000C9B2830706D0521E22D310F8A1
:10105000013B9942F7D11FE0083A13D302F1040291
:1010600041EA012141EA014150F8043B121F21BF2E
:101070004B40A3F1013C2CEA030C1CF0803FF3D061
:10108000C9B2001F083210F8013B521E28BF91EA76
:10109000030FF8D818BF0120401E704762B38B07BA
:1010A00008D0521E11F8013B00F8013B00F02480EB
:1010B0008B07F6D1830740F0208000BF103A07D39A
:1010C00030B4B1E83810103AA0E83810F9D230BC8A
:1010D000530724BFB1E80810A0E8081044BF51F836
:1010E000043B40F8043BD20724BF31F8022B20F820
:1010F000022B44BF0B7803707047121F17D35B009D
:1011000009D151F8043B20F8023B1B0C121F20F8B8
:10111000023BF6D20BE051F8043B00F8013B1B0AFE
:1011200020F8023B1B0C121F00F8013BF3D238BF22
:10113000121D521E24BF11F8013B00F8013BF8D8E4
:101140007047000010B5144600F002F8226010BD90
:10115000C1F30A5343B14A0012F5001F28D2A3F28B
:10116000FE32A1EB0251704750EA410C20D001F051
:10117000004C31EA0C01B1FA81F204BFB0FA80F3FD
:10118000D2180B3AB2F120032CBF00FA03F19140C0
:1011900041EA0C013EBFC2F1200C20FA0CF31943C6
:1011A0009040524240F2FD33D21A01EB0351704796
:1011B0000022704741EA030C50EA4C0C52EA0C0C36
:1011C0004FF4001C09D307D01CEB410F9CBF1CEB54
:1011D000430F8B4208BF824270471CEB430FFBD882
:1011E000994208BF9042704741EA030C50EA4C0C08
:1011F00052EA0C0C4FF4001C09D307D01CEB410F32
:101200009CBF1CEB430F994208BF904270471CEBF8
:10121000410FFBD88B4208BF8242704700B541ECBA
:10122000100B104600F004F851EC100B00BD00BF8D
:10123000020030EE101B40F2FF7C37D41CEA115341
:1012400013D063456BD09B18634504D201EB025168
:1012500020EE101B704701F0004141EA0C510020C4
:1012600041EC100BAFF30080704710EE100B50EA0A
:10127000410054D0B2F57F7F08D202EB5C01090532
:10128000002041EC110B20EE010B70474FF0FE41A6
:10129000002341EC113B20EE010BB2F57E7230EEE3
:1012A000101B4FEA410342EB5353CDE752421CEA75
:1012B000115316D0634532D09A4204D2A1EB0251A9
:1012C00020EE101B70475B1ED21AA1EB035120EEDB
:1012D000101B372A0CD3002001F0004141EC100B09
:1012E000C0E710EE100B50EA410018D0372AF2D2B6
:1012F000C2EB5C021105002041EC110BF1EE100A6B
:1013000020F01F0121F4F851E1EE101A20EE010B3C
:10131000F1EE101AE1EE100A11F0080FA2D1704799
:1013200041EC100BBDEEC00B10EE100A704700EE42
:10133000100AB8EEC00B51EC100B704741EC100BCB
:1013400043EC112B30EE410B51EC100B704741EC8C
:10135000100B43EC112B80EE010B51EC100B70477E
:1013600041EC100BBCEEC00B10EE100A704700EE03
:10137000100AB8EE400B51EC100B704741EC100B0B
:1013800043EC112B20EE010B51EC100B70470000C9
:10139000BBBBE1B1B2F5803F80F07E80022A1ED94E
:1013A0008C46B1FBF2F102FB11C31B0443EA10436C
:1013B000B3FBF2FC02FB1C3380B240EA0343B3FBF5
:1013C000F2F002FB103240EA0C4000237047022A80
:1013D00005D98446B0FBF2F002FB10C270474AB157
:1013E00005D100F0010249085FEA30007047002291
:1013F0000023704700F0E8B80B0002000021002035
:101400007047904271EB030CF6D3B3F5803F2FD2B7
:10141000F0B5B3FA83F7B1FA81F4A7F10F0E3D1BD3
:101420005340CEF1200602FA0EF2F3415340B5F1DB
:101430000F0746D80F3C2C444140C4F12006A04081
:10144000F1414140B1FBF3F603FB1611A2FB064547
:10145000001BA94102D2761E8018594180EA010280
:1014600021FA0EF362FA0EF200215A403046F0BD26
:1014700030B4B1FBF3FC03FB1C11A2FB0C45001BB9
:10148000A94103D2ACF1010C8018594130BC02468D
:101490000B46604600217047B2F1807F65D3F0B5FE
:1014A000B2FA82F7B1FA81F4C7F10F063D1B22FAB6
:1014B00006F307F1110EF24120355A40B5F10F073E
:1014C000B8D94140C4F12006A040F1414140B1FBF0
:1014D000F3FC03FB1C11A2FB0C45001BA94103D22A
:1014E000BCF1010C801859410F2F12D30F3FC903D3
:1014F00041EA5041B1FBF3F603FB1611A2FB06458E
:10150000D4EBC030A94102D2761E8018594146EA78
:10151000CC3C07B34140C7F12006B840F1414140FF
:10152000B1FBF3F603FB1611A2FB0645001BA94114
:1015300002D2761E8018594180EA010221FA0EF388
:10154000C7F1200462FA0EF20CFA07F05A402CFAA6
:1015500004F13043F0BD80EA010221FA0EF30021CC
:1015600062FA0EF260465A40F0BD8C46B1FBF2F1D1
:1015700002FB11C31B0243EA1063B3FBF2FC02FB44
:101580001C331B024CEA002043EA1063B3FBF2FC5D
:1015900002FB1C331B024CEA002043EA1063B3FB3E
:1015A000F2FC02FB1C331B024CEA002043EA1063EE
:1015B000B3FBF2FC02FB1C324CEA00200023704714
:1015C000012000F003B800007047000080B5AFF3C1
:1015D0000080024A11001820ABBEFBE72600020083
:1015E000022801D3012010E00B00DBB2042B01DB49
:1015F00001200AE0DFF8283803EB8000C9B2405C24
:10160000824201D3012000E000207047F8B50600B7
:101610000F0015001C00022E01D301201DE02A003E
:101620003900C9B23000FFF7DBFF012801D10120EA
:1016300013E03800C0B2002812D1B4F5807F0DD27B
:10164000DFF8E0077603304400EB850010F58050AA
:10165000016864F30F2101600020F2BD0120FCE766
:10166000FFB2012F11D1B4F5803F0CD2DFF8B407DF
:101670007603304400EB850010F5A050016864F358
:1016800017210160E8E70120E7E70120E5E700B264
:101690000012C0B27047F8B505000E001700280010
:1016A00000B2FFF7F4FF04002000C0B2022801D30B
:1016B000012024E03A003100C9B22000C0B2FFF797
:1016C0008FFF012801D1012019E0DFF85817200011
:1016D000C0B2400308442A00D2B200EB8200D0F826
:1016E000000CF6B266F3092067F30700E4B2640366
:1016F0002144EDB201EB8501C1F8000C0020F2BDE0
:1017000070B504000D001600022C01D301201DE06D
:1017100032002900C9B22000FFF762FF012801D181
:10172000012013E0DFF8FC166003085850F0004079
:1017300050F0407050F47F00EDB265F3092066F37D
:1017400007006203885064030859002070BD10B57B
:10175000C0B2002800F0EA80022800F0EB80C0F060
:10176000E780042800F0EA80C0F0E680062800F058
:10177000E980C0F0E580082800F0E880C0F0E4804F
:101780000A2800F0E780C0F0E3800C2800F0E68033
:10179000C0F0E2800E2800F0E580C0F0E180102863
:1017A00000F0E480C0F0E080122800F0E380C0F098
:1017B000DF80142800F0E280C0F0DE80162800F000
:1017C000E180C0F0DD80182800F0E080C0F0DC800F
:1017D0001A2800F0DF80C0F0DB801C2800F0DE80DB
:1017E000C0F0DA801E2800F0DD80C0F0D98020280B
:1017F00000F0DC80C0F0D880222800F0DB80C0F050
:10180000D780242800F0DA80C0F0D680262800F0A7
:10181000D980C0F0D580282800F0D880C0F0D480CE
:101820002A2800F0D780C0F0D3802C2800F0D68082
:10183000C0F0D2802E2800F0D580C0F0D1803028B2
:1018400000F0D480C0F0D080322800F0D380C0F007
:10185000CF80342800F0D280C0F0CE80362800F04F
:10186000D180C0F0CD80382800F0D080C0F0CC808E
:101870003A2800F0CF80C0F0CB803C2800F0CE802A
:10188000C0F0CA803E2800F0CD80C0F0C98040285A
:1018900000F0CC80C0F0C880422800F0CB80C0F0BF
:1018A000C780442800F0CA80C0F0C680462800F0F7
:1018B000C980C0F0C580482800F0C880C0F0C4804E
:1018C0004A2800F0C780C0F0C3804C2800F0C680D2
:1018D000C0F0C2804E2800F0C580C0F0C180502802
:1018E00000F0C480C0F0C080522800F0C380C0F077
:1018F000BF80542800F0C280C0F0BE80562800F09F
:10190000C180C0F0BD80582800F0C080C0F0BC800D
:101910005A2800F0BF80C0F0BB805C2800F0BE8079
:10192000C0F0BA805D2800F0BB80BBE01924BFE0A6
:101930003124BDE01824BBE03324B9E03524B7E0FE
:101940001424B5E03724B3E01324B1E02024AFE041
:101950001224ADE02124ABE01124A9E01024A7E07B
:101960002824A5E02924A3E02A24A1E009249FE05B
:101970002B249DE008249BE02C2499E0032497E08D
:10198000022495E0392493E03B2491E03D248FE04C
:1019900001248DE03F248BE0002489E0402487E08F
:1019A000412485E0422483E0432481E0BF247FE09A
:1019B00048247DE049247BE0BC2479E0992477E049
:1019C0009A2475E0502473E09B2471E0B6246FE004
:1019D00051246DE09C246BE0B52469E0522467E05B
:1019E000A02465E0B42463E0532461E0B3245FE005
:1019F00054245DE0B2245BE0B12459E0AD2457E00B
:101A0000602455E0AE2453E0612451E0AD244FE062
:101A100062244DE063244BE0AB2449E0642447E0BA
:101A2000AA2445E0652443E0A92441E0A8243FE03E
:101A300069243DE06B243BE06D2439E06F2437E0FE
:101A4000A32435E0702433E0A22431E071242FE098
:101A5000A1242DE097242BE0962429E0742427E08C
:101A6000952425E0752423E0942421E093241FE0AD
:101A700092241DE078241BE0792419E08C2417E0DF
:101A80007A2415E08B2413E07B2411E08A240FE0F4
:101A90005A240DE059240BE0892409E0582407E07A
:101AA000882405E09D22DFF84019002000F033FE75
:101AB0002000C0B210BD10B5C0B2002800F0EA800E
:101AC000022800F0EB80C0F0E780042800F0EA80F4
:101AD000C0F0E680062800F0E980C0F0E580082824
:101AE00000F0E880C0F0E4800A2800F0E780C0F051
:101AF000E3800C2800F0E680C0F0E2800E2800F0C1
:101B0000E580C0F0E180102800F0E480C0F0E080C3
:101B1000122800F0E380C0F0DF80142800F0E2809B
:101B2000C0F0DE80162800F0E180C0F0DD801828CB
:101B300000F0E080C0F0DC801A2800F0DF80C0F008
:101B4000DB801C2800F0DE80C0F0DA801E2800F068
:101B5000DD80C0F0D980202800F0DC80C0F0D88083
:101B6000222800F0DB80C0F0D780242800F0DA8043
:101B7000C0F0D680262800F0D980C0F0D580282873
:101B800000F0D880C0F0D4802A2800F0D780C0F0C0
:101B9000D3802C2800F0D680C0F0D2802E2800F010
:101BA000D580C0F0D180302800F0D480C0F0D08043
:101BB000322800F0D380C0F0CF80342800F0D280EB
:101BC000C0F0CE80362800F0D180C0F0CD8038281B
:101BD00000F0D080C0F0CC803A2800F0CF80C0F078
:101BE000CB803C2800F0CE80C0F0CA803E2800F0B8
:101BF000CD80C0F0C980402800F0CC80C0F0C88003
:101C0000422800F0CB80C0F0C780442800F0CA8092
:101C1000C0F0C680462800F0C980C0F0C5804828C2
:101C200000F0C880C0F0C4804A2800F0C780C0F02F
:101C3000C3804C2800F0C680C0F0C2804E2800F05F
:101C4000C580C0F0C180502800F0C480C0F0C080C2
:101C5000522800F0C380C0F0BF80542800F0C2803A
:101C6000C0F0BE80562800F0C180C0F0BD8058286A
:101C700000F0C080C0F0BC805A2800F0BF80C0F0E7
:101C8000BB805C2800F0BE80C0F0BA805D2800F008
:101C9000BB80BBE00824C0E00824BEE00824BCE010
:101CA0000824BAE00824B8E00824B6E00824B4E028
:101CB0000824B2E00824B0E00824AEE00824ACE038
:101CC0000824AAE00824A8E00824A6E00824A4E048
:101CD0000824A2E00824A0E008249EE008249CE058
:101CE00008249AE0082498E0082496E0082494E068
:101CF000082492E0082490E008248EE008248CE078
:101D000008248AE0082488E0082486E0082484E087
:101D1000082482E0082480E008247EE008247CE097
:101D200008247AE0082478E0082476E0082474E0A7
:101D3000082472E0082470E008246EE008246CE0B7
:101D400008246AE0082468E0082466E0082464E0C7
:101D5000082462E0082460E008245EE008245CE0D7
:101D600008245AE0162458E0082456E0082454E0D9
:101D7000082452E0082450E008244EE008244CE0F7
:101D800008244AE0082448E0082446E0082444E007
:101D9000082442E0082440E008243EE008243CE017
:101DA00008243AE0082438E0082436E0082434E027
:101DB000082432E0082430E008242EE008242CE037
:101DC00008242AE0082428E0082426E0082424E047
:101DD000082422E0082420E008241EE008241CE057
:101DE00008241AE0082418E0082416E0082414E067
:101DF000082412E0082410E008240EE008240CE077
:101E000008240AE0082408E0082406E04FF486725B
:101E1000DFF8D415002000F07EFC2000C0B210BD19
:101E200004B608100000044080B5C0B2002800F0DD
:101E3000EA80022800F0EB80C0F0E780042800F080
:101E4000EA80C0F0E680062800F0E980C0F0E58076
:101E5000082800F0E880C0F0E4800A2800F0E7805D
:101E6000C0F0E3800C2800F0E680C0F0E2800E288D
:101E700000F0E580C0F0E180102800F0E480C0F0C0
:101E8000E080122800F0E380C0F0DF80142800F02A
:101E9000E280C0F0DE80162800F0E180C0F0DD8036
:101EA000182800F0E080C0F0DC801A2800F0DF8005
:101EB000C0F0DB801C2800F0DE80C0F0DA801E2835
:101EC00000F0DD80C0F0D980202800F0DC80C0F078
:101ED000D880222800F0DB80C0F0D780242800F0D2
:101EE000DA80C0F0D680262800F0D980C0F0D580F6
:101EF000282800F0D880C0F0D4802A2800F0D780AD
:101F0000C0F0D3802C2800F0D680C0F0D2802E28DC
:101F100000F0D580C0F0D180302800F0D480C0F02F
:101F2000D080322800F0D380C0F0CF80342800F079
:101F3000D280C0F0CE80362800F0D180C0F0CD80B5
:101F4000382800F0D080C0F0CC803A2800F0CF8054
:101F5000C0F0CB803C2800F0CE80C0F0CA803E2884
:101F600000F0CD80C0F0C980402800F0CC80C0F0E7
:101F7000C880422800F0CB80C0F0C780442800F021
:101F8000CA80C0F0C680462800F0C980C0F0C58075
:101F9000482800F0C880C0F0C4804A2800F0C780FC
:101FA000C0F0C3804C2800F0C680C0F0C2804E282C
:101FB00000F0C580C0F0C180502800F0C480C0F09F
:101FC000C080522800F0C380C0F0BF80542800F0C9
:101FD000C280C0F0BE80562800F0C180C0F0BD8035
:101FE000582800F0C080C0F0BC805A2800F0BF80A4
:101FF000C0F0BB805C2800F0BE80C0F0BA805D28D5
:1020000000F0BB80BBE00020C0E00020BEE001206B
:10201000BCE00120BAE00220B8E00320B6E00320D3
:10202000B4E00420B2E00420B0E00520AEE00520DA
:10203000ACE00620AAE00720A8E00920A6E00A20DC
:10204000A4E00B20A2E00B20A0E00C209EE00C20DE
:102050009CE00D209AE00D2098E00E2096E00F20E5
:1020600094E0102092E0112090E011208EE01220E8
:102070008CE012208AE0132088E0142086E01520EE
:1020800084E0162082E0162080E018207EE01920EF
:102090007CE019207AE01A2078E01B2076E01C20F2
:1020A00074E01C2072E01C2070E01D206EE01D20FA
:1020B0006CE01D206AE01E2068E01E2066E01E2005
:1020C00064E01F2062E01F2060E020205EE020200E
:1020D0005CE021205AE0222058E0242056E0242011
:1020E00054E0252052E0252050E026204EE0272015
:1020F0004CE027204AE0282048E0282046E029201C
:1021000044E0292042E02A2040E02C203EE02D201F
:102110003CE02E203AE02F2038E02F2036E030201F
:1021200034E0302032E0312030E031202EE0322027
:102130002CE033202AE0342028E0342026E035202B
:1021400024E0352022E0362020E037201EE0382031
:102150001CE039201AE0392018E03A2016E03A2035
:1021600014E03B2012E03B2010E03B200EE03C203E
:102170000CE03C200AE03D2008E03D2006E040F273
:102180007B129949002000F0C6FA0020C0B202BDBF
:10219000002007E09549C2018A5822F00042C3019D
:1021A000CA50401C3F28F5DB704770B504000E0094
:1021B000002000202000C0B2FFF736FE8B4DC0B2D9
:1021C000C0012844006A80B206FB00F642F210709B
:1021D000B6FBF0F62000C0B2FFF726FEC00128448F
:1021E000B6B246612000C0B2FFF71EFE0100C9B2C0
:1021F000C9012944096C51F00101C0B2C001284451
:10220000016470BD2DE9F041AAB004000D00160074
:10221000342100221DAF380000F0FEFA00207421A6
:1022200000226F46380000F0F7FA0E201E902000C2
:10223000C0B2FFF740FC8DF87C002000C0B2FFF771
:1022400086FA07005FF008082000C0B2FFF77FFAA7
:102250001DAA97FBF8F108FB11773900644BC0B257
:10226000C010C001184400F096FB2000C0B2FFF778
:10227000DBFD00220121C0B210F5937000B2FFF720
:102280000AFA2000C0B2FFF7CFFDC0B210F593707C
:1022900000B2FFF7FCF9092300220121C0B2FFF7C9
:1022A000B5F92000C0B2FFF7BFFDC0B210F59370C2
:1022B00000B2FFF7ECF900220121C0B2FFF720FACB
:1022C0004C48B0FBF5F1090C4A482A04B0FBF2F384
:1022D00002FB1300002800D0491C022903D2002071
:1022E0008DF801002FE0032903D201208DF80100B1
:1022F00029E0052903D202208DF8010023E00929F5
:1023000003D203208DF801001DE0112903D204201F
:102310008DF8010017E0212903D205208DF8010076
:1023200011E0412903D206208DF801000BE081293C
:1023300003D207208DF8010005E040F2C9122A49B6
:10234000002000F0E8F904208DF8000001208DF84D
:10235000100000208DF8110003208DF812000320DA
:102360008DF8130000208DF80800224901229DF904
:1023700001008240B1FBF2F0B0FBF5F0401E059089
:102380000598401C06FB00F642F21070B6FBF0F018
:10239000089002208DF8400003208DF8680001208D
:1023A0001B9001208DF828002000C0B2FFF73CFDF3
:1023B0000E4D6946C0B2C001284400F02BFB20003E
:1023C000C0B2FFF731FDC0B2C001284400F022FCCA
:1023D0002000C0B2FFF728FDC0B2C001284400F0C1
:1023E0001EFC2AB0BDE8F08108B00810000058407B
:1023F0000000314000127A0082B0002001900020DD
:1024000000900020019009E00098401C0090009886
:10241000B0F5005FF8D30198401C01900198B0F529
:10242000805F02D200200090F1E702B0704780B5D3
:102430000100002000F0B8FE01BD2DE9F043ADF52C
:10244000137D0700884616001C000020ADF802002E
:102450000020ADF80000002002900020ADF804003C
:102460000020ADF806004046FEF7D0FD0290DFF8F0
:1024700070532888002801D028698047DFF864035A
:102480000078002800F033812888002800F01181AE
:10249000BDF90600411CADF806103A00010089B2F2
:1024A0000020EB68984747464046FEF7AFFD029094
:1024B0006888A97990FBF1F0ADF804003800471C5A
:1024C00000780028FAD10020ADF800000EE07F1E51
:1024D00038782F2802D038785C2804D1BDF8000065
:1024E000401CADF800000298401E0290BDF80000AC
:1024F000022802DA02980028E9D50298002806D4BA
:102500007A1CDFF8E41253A801F0FCF80EE0BDF8E5
:102510000000002805D13A00B44953A801F0F2F8B0
:1025200004E03A00B04953A801F0ECF80020ADF8FF
:10253000020042E0BDF80010BDF80020BDF80230F6
:1025400053AF9BB2BDF90400434313FA82F0385CE9
:1025500043AA89B25054BDF80000401CADF80000F9
:10256000BDF8000080B2BDF9041088420EDA53A80D
:10257000FEF74CFDBDF80020BDF802309BB2BDF95E
:1025800004104B4313FA82F18842D3D2002043A9AE
:10259000BDF800208854BDF90600411CADF80610B6
:1025A00043AAE97911FB00F189B20020EB68984752
:1025B000BDF80200401CADF80200BDF8027053A83F
:1025C000FEF724FDBDF90410B0FBF1F0401CBFB2D2
:1025D000874203D20020ADF80000C1E732008449F1
:1025E00053A801F08FF8BDF90600411CADF80610A4
:1025F00053AAE97911FB00F189B20020EB689847F2
:10260000002C74D00020ADF8020041E0BDF80010AD
:10261000BDF80020BDF802309BB2BDF90400434371
:1026200013FA82F0205C43AA89B25054BDF800002E
:10263000401CADF80000BDF8000080B2BDF90410E8
:1026400088420EDA2000FEF7E1FCBDF80020BDF85C
:1026500002309BB2BDF904104B4313FA82F1884259
:10266000D4D2002043A9BDF800208854BDF906004B
:10267000411CADF8061043AAE97911FB00F189B2BB
:102680000020EB689847BDF80200401CADF802003E
:10269000BDF802602000FEF7B9FCBDF90410B0FBE4
:1026A000F1F0401CB6B2864221D20020ADF8000005
:1026B000C1E74FF4807100220DF10C09484600F08B
:1026C000ABF83800A9688847002C07D00094330085
:1026D0004246484903A801F015F805E03300424698
:1026E000454903A801F00EF803A8A96888470DF52D
:1026F000137DBDE8F08310B53A480078002809D072
:102700003F4C2100002000F05DFD012221003B48EC
:1027100001F07DF810BD38B50C001500C0B20028DE
:1027200003D138480078002800D131BD36490878F7
:10273000002800D0FEE70878401C087001F070FA0D
:1027400000232A0021003148FFF777FEFFF754FEEF
:10275000F6E7002101804FF6FF7141808180FF2163
:102760008171C171002181600021C160002101617E
:1027700070471B4902880A8042884A8082888A8082
:1027800082798A71C279CA7182688A60C268CA60B5
:1027900000690861012013490870704700B585B0D1
:1027A0006846FFF7D6FF1A4802906846FFF7E1FF38
:1027B00005B000BD80B5FFF7F1FF002300225FF4F4
:1027C000E131002000F09EFE4023124A00210B4818
:1027D00001F0BDF90121002000F0BCFD01BD0000A9
:1027E0007C1B02283D1C0228A0B5081038B5081033
:1027F000ACB5081004B30810A8B408104C1B02288C
:102800003E1C0228B40802283F1C022848B50810C4
:102810002F240810AC1A022862F30F2262F31F4221
:10282000401810F0030308D0C91A1FD3DB0748BFB4
:1028300000F8012D28BF20F8022D130030B41446F3
:102840001546103928BF20E93C00FAD8490728BFAF
:1028500020E90C0048BF40F8042D890028BF20F86B
:10286000022D48BF00F8012D30BC7047C91818BFB1
:1028700000F8012DCB0728BF00F8012D704700009C
:1028800030B4614B1818C009604C14EB00140429D3
:102890000DD223681F25C8008540AB43D2B212F089
:1028A0001F02C90012FA01F1194321600CE0091F4F
:1028B00063681F25C8008540AB43D2B212F01F02E7
:1028C000C9008A401A43626030BC7047002A04D1B4
:1028D000012212FA01F1416003E0012212FA01F132
:1028E0008160704710B48900436C0F248C40A3436F
:1028F00012F00F0212FA01F11943416410BC704743
:1029000010B4836C01248C40A34312F0010212FA2C
:1029100001F11943816410BC704710B4C36C0124E9
:102920008C40A34312F0010212FA01F11943C16471
:1029300010BC704710B449001031C36C03248C40A4
:10294000A34312F0030212FA01F11943C16410BC4F
:1029500070474269012212FA01F1416140697047F2
:1029600010B4836901248C40A34312F0010212FACF
:1029700001F11943816110BC704710B44900036C28
:1029800003248C40A34312F0030212FA01F119430D
:10299000016410BC7047F8B505000E001400002754
:1029A000002D2ED0002C2CD0226831002800FFF7FB
:1029B0008DFF227A31002800FFF762FF6269310043
:1029C0002800FFF79DFFA26931002800FFF7A5FF4F
:1029D000E26931002800FFF7ADFF6268310028008E
:1029E000FFF780FFE26831002800FFF7C6FF3100E3
:1029F0002800FFF7AEFF226931002800FFF7B0FF83
:102A000000E0034F3800F2BD0000CFBF00003040AF
:102A100001005A000122002800F0EC80002900F09B
:102A2000E980754A12680B7A63F392420B7B13F0CC
:102A3000030363F311420B7813F0070363F31A6285
:102A40008B7863F39E7291F8283063F3000291F85B
:102A5000343063F341020B7F63F382024B7F63F3F5
:102A6000C30291F8403063F38A2291F84030DBB220
:102A70005B08DBB263F3492291F8703063F30822FC
:102A800091F8713013F0030363F30D3202600A7A98
:102A9000002A02D10022826007E00A7A012A02D1CC
:102AA0004A69826001E0012282600A6A02614A6A20
:102AB0004261CA6A82610A6BC2614A6902628A69BA
:102AC00042624E4A126891F8443003F0FF03120A42
:102AD00012021A4391F84C3003F0FF0363F31742DC
:102AE00091F85C3003F0FF0363F31F6291F86C30E0
:102AF00003F0FF0363F30F224264414A126891F826
:102B0000643003F0FF0363F30F2291F8543003F0B5
:102B1000FF03120A12021A4382643A4A126891F8B9
:102B2000413013F00303920892001A4391F8603089
:102B300013F0030363F38B2291F8483013F003037F
:102B400063F3051291F8503013F0030363F3092285
:102B500091F8583013F0030363F3871291F868304B
:102B600013F0030363F38302C264274A126891F8E7
:102B7000723013F00703D208D2001A4391F8733071
:102B800013F0070363F30612426591F8352082675C
:102B90001E4A12680B7C13F00303920892001A433A
:102BA000CB7C13F0030363F387124B7C13F0030316
:102BB00063F383028B7C13F0030363F30512026556
:102BC000134A1268CB8863F31F428B889BB21B0A9F
:102BD0009BB263F30F220B78052B06D1097901F024
:102BE000FF01120A12020A4302E0497861F3070268
:102BF0000263002210007047DCB60810E0B608102F
:102C0000E4B60810E8B60810ECB60810F0B60810E4
:102C1000F4B60810016851F000410160704740307F
:102C2000016851F01001016070474030016851F0B7
:102C30000401016070470000022801D3012010E068
:102C40000B00DBB2042B01DB01200AE0DFF8AC381B
:102C500003EB8000C9B2405C824201D3012000E056
:102C600000207047F8B504000F0015001E00022C6C
:102C700001D301202AE02A003900C9B22000FFF761
:102C8000DBFF012801D1012020E006983900C9B2FC
:102C900002291ED1B6F5803F19D2202817D24FF451
:102CA000C052DFF85C1863030B4403EB8503134445
:102CB0001F6866F317271F606403214401EB850139
:102CC00011440A6860F3C7020A600020F2BD0120C7
:102CD000FCE7FFB2032F1FD1B6F1807F1AD2202864
:102CE00018D24FF4E052DFF8181863030B4403EBDB
:102CF000850313441F6807F0FF0757EA06271F6084
:102D00006403214401EB850111440A6860F3C702A2
:102D10000A60DAE70120D9E70120D7E700B2001204
:102D2000C0B27047F8B505000E001700280000B2C9
:102D3000FFF7F4FF04002000C0B2022801D30120F5
:102D400024E03A003100C9B22000C0B2FFF774FF9E
:102D5000012801D1012019E0DFF8A4172000C0B23A
:102D6000400308442A00D2B200EB8200D0F8000CE5
:102D7000F6B266F3092067F30700E4B26403214466
:102D8000EDB201EB8501C1F8000C0020F2BD70B579
:102D900004000D001600022C01D301201DE03200BA
:102DA0002900C9B22000FFF747FF012801D1012007
:102DB00013E0DFF84C176003085850F0004050F063
:102DC000407050F47F00EDB265F3092066F3070010
:102DD0006203885064030859002070BDD0F8400396
:102DE0007047D0F80803C005C00D704710F5417159
:102DF0000A6852F480320A6010F541710A6832F4B0
:102E000080320A60D0F804037047C0F8401270475F
:102E1000D0F80802C005C00D7047D0F80802C0F312
:102E2000C030704738B505002800FFF7F1FF0400F7
:102E30002800FFF7F2FF0419002C01D1012000E067
:102E40000020C0B232BDC0F8C81F7047D0F8C80F0C
:102E50007047C0F8C01FD0F8C00F7047C0F8881F77
:102E60007047D0F8880F7047C0F8801FD0F8800FE7
:102E70007047016851F00041016070472DE9F84F3B
:102E80000400012500200020DFF838082100C9B225
:102E900050F82160D6F80403000601D1042700E0B1
:102EA00001273000FFF7D2FF3900C9B2084253D0E2
:102EB0003800C0B2012835D13000FFF792FF8046BC
:102EC0005FF0000901E019F101094046C0B28145F7
:102ED00022DADFF8F4A72000C0B21AF80000411C83
:102EE0002200D2B20AF80210DFF8E0172200D2B2B4
:102EF000120101EB020BC0B200903000FFF76EFF31
:102F000000990BF801002000C0B21AF80000102848
:102F1000D9DB3000FFF76AFF0120DFF8B417E4B215
:102F2000085513E03000FFF759FFDFF8A017220023
:102F3000D2B2120188540120DFF88C172200D2B2DD
:102F400088540120DFF88817E4B20855FFB2390031
:102F50003000FFF77EFF0AE03000FFF782FF8005B8
:102F600005D54FF400713000FFF77EFF00252800E3
:102F7000C0B2BDE8F28F38B504001500C9B200290F
:102F80000ED0102919D0202924D030292FD0312952
:102F90003AD0402945D0502950D060295BD067E015
:102FA000DFF83007A06001202073112060734FF418
:102FB0008C70E0811220208260E0DFF81C07A060A6
:102FC000012020731120607340F21D10E0816B20FE
:102FD000208253E0DFF80407A06001202073112055
:102FE00060734FF48E70E0816A20208246E0DFF843
:102FF000F006A060022020731120607340F21B10C5
:10300000E0816920208239E0DFF8D806A060012045
:1030100020731120607340F21B10E0816920208230
:103020002CE0DFF8C406A060012020731320607339
:103030004FF48D70E081682020821FE0DFF8AC063D
:10304000A060012020731120607340F21F10E08106
:103050006D20208212E0DFF89806A0600120207326
:10306000112060734FF48F70E0816C20208205E0A6
:10307000DE22DFF880160020FFF74DFBEDB2002DB9
:103080000ED0102D19D0202D24D0302D2FD0312D41
:103090003AD0402D45D0502D50D0602D5BD067E008
:1030A000DFF83006206000202071112060714FF49D
:1030B0008C70E0811220208261E0DFF81C06206025
:1030C000002020711120607140F21D10E0816B2002
:1030D000208254E0DFF804062060002020711120D7
:1030E00060714FF48E70E0816A20208247E0DFF843
:1030F000F0052060012020711120607140F21B104A
:10310000E081692020823AE0DFF8D80520600020C5
:1031100020711120607140F21B10E0816920208233
:103120002DE0DFF8C40520600020207113206071BD
:103130004FF48D70E0816820208220E0DFF8AC053C
:103140002060002020711120607140F21F10E0818A
:103150006D20208213E0DFF89805206000202071A8
:10316000112060714FF48F70E0816C20208206E0A6
:103170004FF49172DFF87C150020FFF7CCFA31BDD7
:1031800038B50400DFF83C55C9B22000C0B255F88C
:103190002000FFF73AFE2000C0B255F82000FFF7EC
:1031A00041FE0028F7D031BD38B504000D0005E020
:1031B00029782000C0B2FFF7E3FF6D1C28780028B3
:1031C000F6D131BD30B40022DFF804350200D2B2AE
:1031D0009A5C002A2CD0DFF8F4240400E4B2240125
:1031E000145D0C70DFF8E0440100C9B2615C491E57
:1031F0000500EDB261550100C9B2615C002912D031
:1032000000210300DBB2E35C99420FDA0300DBB27A
:103210001B0113440500EDB22D0115440D446D78DA
:103220005D54491CEDE70021C0B21954012000E0B3
:103230000020C0B230BC704770B505000C00DFF84C
:1032400084642800C0B256F82000FFF70AFE400848
:10325000400001002800C0B256F82000FFF7FEFD34
:103260002800C0B256F82000FFF7FBFD30F0020046
:1032700001002800C0B256F82000FFF7EFFD28003B
:10328000C0B256F82000FFF7ECFD30F0200001003E
:103290002800C0B256F82000FFF7E0FD2800C0B2B9
:1032A00056F82000FFF7DDFD30F040000100280057
:1032B000C0B256F82000FFF7D1FD2800C0B256F882
:1032C0002000FFF7CEFD30F0100001002800C0B252
:1032D00056F82000FFF7C2FD2800C0B256F82000C3
:1032E000FFF7BFFD30F4807001002800C0B256F82F
:1032F0002000FFF7B3FD2800C0B256F82000FFF70A
:10330000B0FD30F4806001002800C0B256F8200003
:10331000FFF7A4FD002C0ED02800C0B256F8200004
:10332000FFF794FD50F400700100EDB256F825004F
:10333000FFF794FD0DE02800C0B256F82000FFF71B
:1033400085FD30F400700100EDB256F82500FFF75E
:1033500085FD70BD70B505000C00DFF868632800BE
:10336000C0B256F82000FFF771FD30F008000100F0
:103370002800C0B256F82000FFF765FD2800C0B253
:1033800056F82000FFF762FD30F020000100280011
:10339000C0B256F82000FFF756FD2800C0B256F81C
:1033A0002000FFF753FD30F4807001002800C0B208
:1033B00056F82000FFF747FD2800C0B256F820005D
:1033C000FFF744FD30F4007001002800C0B256F849
:1033D0002000FFF738FD2800C0B256F82000FFF7A4
:1033E00035FD30F4006001002800C0B256F820001E
:1033F000FFF729FD2800C0B256F82000D0F80403DA
:1034000000061FD1002C5BD12800C0B256F8200066
:10341000FFF71CFD4008400001002800C0B256F82C
:103420002000FFF710FD2800C0B256F82000FFF77B
:103430000DFD30F004000100EDB256F82500FFF755
:1034400002FD70BD002C1DD02800C0B256F820002F
:10345000FFF7FCFC30F0040001002800C0B256F871
:103460002000FFF7F0FC2800C0B256F82000FFF75C
:10347000EDFC50F001000100EDB256F82500FFF719
:10348000E2FCDEE72800C0B256F82000FFF7DEFCC1
:1034900030F0040001002800C0B256F82000FFF709
:1034A000D2FC2800C0B256F82000FFF7CFFC40083D
:1034B00040000100EDB256F82500FFF7C4FCC0E75C
:1034C0002800C0B256F82000FFF7C0FC40084000BA
:1034D00001002800C0B256F82000FFF7B4FC280015
:1034E000C0B256F82000FFF7B1FC50F00400010014
:1034F000EDB256F82500FFF7A6FCA2E704B60810C7
:10350000000004402DE9F0412DED028BA8B005002C
:103510000E00170028003900C9B20909C0B288425C
:1035200001D1012000E000201C00DFF8C8814FF429
:1035300021724146C0B2FFF7EEF828002100C9B25F
:103540000909C0B2884201D1012000E0002040F208
:1035500085224146C0B2FFF7DEF802A8142100F030
:1035600087FB342100220DF168084046FFF754F92B
:103570004C2100220DF11C084046FFF74DF90820B0
:1035800080B206FB00F65C48B0FBF6F85A4806FB32
:10359000180000EE100AB8EE400B01EE106AB8EE0B
:1035A000411B80EE010BBFEEED0B10EE100B08EE91
:1035B000100A2200D2B23900C9B202A8FFF7DBFC20
:1035C00008201B909DF80D008DF870001AAA9DF838
:1035D0000C100298FFF7DFF906201B909DF81500EC
:1035E0008DF870001AAA9DF814100498FFF7D3F90B
:1035F00000200790082008900820099002200B90D6
:1036000000200C9000201290002014902D4C2800D7
:10361000C0B254F8200000F071FC38492A00D2B240
:10362000382042430A4407A92800C0B254F82000B9
:1036300000F022FB2800C0B254F82000FFF719FC6C
:103640002A00D2B20321BDF91600FFF76BFBBDF9CA
:103650001600FFF763FB8DED008AB8F101084346C1
:103660002A00D2B20321C0B2FFF7FCFABDF916005E
:10367000FFF754FB2A00D2B20321C0B2FFF787FB49
:10368000BDF91800ADF800000320ADF802000120DC
:103690008DF8040007221A482900C9B250F82110F9
:1036A000684600F0C9FA00212800C0B2FFF752FEB8
:1036B00000212800C0B2FFF7BFFD28B0BDEC028B8F
:1036C000BDE8F0818C080228C01B0228F4190228EA
:1036D000C81B022800003140000231400005314083
:1036E0008008314080063140000731400001314000
:1036F00080013140A0B0081000B4C4047C16022838
:10370000700802280CB430B583B00A4606A90291AD
:10371000044600250194009502AB01A908487844AD
:103720001E30FCF7B0FC019A157000284EBF04460D
:103730000198041B204603B030BC5DF80CFB00BFB1
:1037400083D8FFFF82688918816003E0826841693D
:10375000521A8260816842699142F7D27047C2680A
:103760008918C16003E0C2684169521AC260C16829
:1037700042699142F7D2704770B50400002C01D025
:10378000012000E000205422DFF8FC13C0B2FEF755
:10379000C2FF0025207850F0010020700020A060BA
:1037A0000020E060606920616078002803D0022872
:1037B00010D007D315E06169002266683000FFF77A
:1037C0002BF80EE061694900002266683000FFF7BF
:1037D00023F806E061698900002266683000FFF77F
:1037E0001BF8002020702800C0B270BD10B5040086
:1037F000002C01D0012000E000207022DFF88813A7
:10380000C0B2FEF788FF60692169401A10BD2DE93A
:10381000F84305001600002D01D0012000E0002033
:103820000C00AA22DFF86013C0B2FEF774FF002775
:103830000020002C01D10327B5E0287810F0050FF7
:1038400001D00427AFE0287850F0040028702869E0
:10385000B042C0F0A380D5F81480A868B8EB000887
:10386000B04567D26878002803D0022841D01FD322
:1038700090E0424621006868AB6800EB03094846C7
:10388000FDF70CFC41462800FFF75CFFB6EB080291
:1038900004EB08016868AB6800EB03042000FDF747
:1038A000FDFBB6EB080841462800FFF74BFF71E02F
:1038B0005FEA480221006868AB6800EB43094846AC
:1038C000FDF7ECFB41462800FFF73CFFB6EB080292
:1038D000520004EB48016868AB6800EB4304200029
:1038E000FDF7DCFBB6EB080841462800FFF72AFF8E
:1038F00050E05FEA880221006868AB6800EB83094A
:103900004846FDF7CBFB41462800FFF71BFFB6EB0F
:103910000802920004EB88016868AB6800EB83043E
:103920002000FDF7BBFBB6EB080841462800FFF777
:1039300009FF2FE06878002803D002281DD00ED39D
:1039400028E0320021006868AB6800EB0304200027
:10395000FDF7A4FB31002800FFF7F4FE1AE0720027
:1039600021006868AB6800EB43042000FDF796FB7C
:1039700031002800FFF7E6FE0CE0B2002100686885
:10398000AB6800EB83042000FDF788FB31002800C2
:10399000FFF7D8FE2869861B2E6100E005272878EE
:1039A00010F0FB0028703800C0B2BDE8F2832DE9AA
:1039B000F04705000E001F00002D01D0012000E09F
:1039C00000201400DFF8C08140F25B124146C0B213
:1039D000FEF7A1FE002C01D0012000E000204FF4F2
:1039E000AE724146C0B2FEF796FE5FF000080020BE
:1039F0000020002E02D15FF003088BE0297811F03F
:103A0000030F03D020605FF006089CE02800FFF75A
:103A1000EDFE2168884209D220605FF00708002887
:103A200004D1287810F0F70028708CE0287850F046
:103A300008002870D5F81490E868B9EB00092068F0
:103A4000814522D36878002803D0022813D008D3F8
:103A50005CE022686868E96801443000FDF71EFBFD
:103A600054E0226852006868E96800EB41013000C8
:103A7000FDF714FB4AE0226892006868E96800EBF1
:103A800081013000FDF70AFB40E06878002803D090
:103A9000022827D011D339E04A466868E968014412
:103AA000B2465046FDF7FAFA2268B2EB090269689D
:103AB0004E443000FDF7F2FA28E05FEA49026868F8
:103AC000E96800EB4101B2465046FDF7E7FA22688B
:103AD000B2EB09025200696806EB49063000FDF7B7
:103AE000DDFA13E05FEA89026868E96800EB8101AA
:103AF000B2465046FDF7D2FA2268B2EB09029200B4
:103B0000696806EB89063000FDF7C8FA287810F0DE
:103B1000F7002870FFB2002F15D128780B2802D1AA
:103B20005FF002080FE0287850F00200287021684A
:103B30002800FFF714FE29692068411829612878B8
:103B400010F0FD0028704046C0B2BDE8F087F8B51F
:103B500004000E0017001D00002C01D0012000E021
:103B600000204FF407720849C0B2FEF7D4FD0020D0
:103B700067600021217066700021A1600021E16072
:103B800025616561C0B2F2BD24AF0810010009B221
:103B9000002908D4012210F01F018A401B4900B2FD
:103BA000400941F820207047010009B2002908D4DB
:103BB000012210F01F018A40154900B2400941F866
:103BC00020207047020012B2002A04D44901114A91
:103BD00000B2115407E049010F4A00B210F00F0083
:103BE000104400F8041C7047002800D162B60B484E
:103BF0000168491C0160704772B6084908680028CE
:103C000002D00868401E08600868704700E100E0C4
:103C100080E200E000E400E018ED00E0101C022863
:103C200080B5FFF7E9FFFEF7B3FA01BD80B5C9B271
:103C300000B2FFF7C7FF01BD70B504000D0016000C
:103C4000200000F0A3F92900B4F9000000F0DDF92C
:103C50003100C9B2B4F90200FFF7E8FFB4F902007D
:103C6000FFF7A2FFB4F90200FFF790FF70BD00005C
:103C7000002200F0E1B900002DE9F44FDFF8D8226E
:103C8000DFF8D8321B68DFF8D8422468DFF8D45256
:103C90002D68DFF8D4623668DFF8D0723F68DFF84D
:103CA000D0C2DCF800C0DFF8CCE2DEF800E0DFF8DC
:103CB000C882D8F80080DFF8C492D9F80090DFF805
:103CC000C0A2DAF800A0002800F01581002900F059
:103CD00012810A68022A06D191F82620002A02D110
:103CE0005FF0000B03E0D1F804B0BBF1010B91F8D9
:103CF0002420002A01D0012200E0002262F31043B8
:103D000033F440436BF30303022262F3196303604D
:103D10000A7812F0030262F31964046491F8252012
:103D2000002A01D0012200E0002262F38615CA7E3B
:103D3000002A01D0012200E0002262F38A254A7E97
:103D4000002A01D0012200E0002262F308258A7EC9
:103D5000002A01D0012200E0002262F349258A6B8B
:103D6000521E12F00F0262F313450A69521E12F03E
:103D70000702ED08ED0015434A6962F304154A692C
:103D8000520862F3451585640A7B002A01D001229E
:103D900000E0002262F308260A7E002A01D00122F8
:103DA00000E0002262F349268A68521E12F01F02C8
:103DB000760976011643C0F800630A7F02F0FF021D
:103DC0003F0A3F02174391F8202002F0FF0262F3FE
:103DD0001747C0F8107391F82720002A01D001225C
:103DE00000E0002262F3082C0A69521E12F007025A
:103DF0005FEADC0C5FEACC0C52EA0C0C4A6962F315
:103E0000041C4A69520862F3451CC0F844C00A7B8E
:103E1000002A01D0012200E0002262F3082E8A6805
:103E2000521E12F01F025FEA5E1E5FEA4E1E52EA49
:103E30000E0E0A68012A01D1012200E0002262F37D
:103E4000104EC0F800E291F83C2002F0FF025FEA59
:103E500018285FEA082852EA0808C0F8048391F895
:103E60002820002A01D0012200E0002262F35969D3
:103E7000CA6A012A01D1012200E0002262F3186916
:103E80004A6B012A01D1012300E00023009A63F369
:103E9000104991F8303003F0FF035FEA19295FEA17
:103EA000092953EA0909C0F8509091F8443003F009
:103EB000FF035FEA1A2A5FEA0A2A53EA0A0AC0F8ED
:103EC00004A28B6CC0F8883F096CC0F8C81F002A98
:103ED00010D0002050600020106000209060002072
:103EE000D060002010620020D06200201063DFF854
:103EF0009400506300221000BDE8F28FDFF88810B4
:103F000001605FF4401101640021816440F20711F7
:103F1000C0F800130022C0F804230022C0F81023C8
:103F200000224264C0F800120021C0F804120021EF
:103F300001650021C0F8C81E0021C0F8881E0021BC
:103F4000C0F8C81F0021C0F8881F0021C0F8081F52
:103F50000021C0F8481F70470160AA0090B6081001
:103F600094B6081098B608109CB60810A0B60810B1
:103F7000A4B60810A8B60810ACB60810B0B6081061
:103F8000B4B60810EFCDAB000F00000330B4002131
:103F9000234A1368234A1468002832D0224A15683D
:103FA000C5F303250E2D0FD01268C2F303220D2A8C
:103FB00028D1827812F00F022409240114430279D7
:103FC000002A15D0012214E0827812F00F021B099A
:103FD0001B0113430279002A01D0012200E00022D4
:103FE00062F3DF73114AB0F9000042F8203009E0B3
:103FF000002262F3DF740E4AB0F9000042F820405C
:1040000000E00649080030BC70470A4B1A68002AD5
:1040100003D01A6800B242F8201070470100560021
:10402000C0B60810C4B608100000204000A0204010
:1040300000C020402407022800B500BF13009646A8
:104040009446103928BFA0E80C50FAD85FEA417CAA
:1040500028BF0CC048BF40F8042BC90728BF20F870
:10406000022B48BF00F8012B00BD000080B5DFF82F
:10407000042A0021082001F00DF8DFF8FC291021A6
:10408000002001F007F8DFF8F42920210A2001F0D0
:1040900001F8DFF8EC2930210A2000F0FBFF01BD18
:1040A00080B5DFF8E0290021082000F0F3FFDFF8F9
:1040B000C8291021002000F0EDFFDFF8CC292021D5
:1040C0000A2000F0E7FFDFF8C42930210A2000F0C1
:1040D000E1FFDFF8BC2940210A2000F0DBFFDFF818
:1040E000B42950210A2000F0D5FFDFF8AC29702157
:1040F0000A2000F0CFFFDFF8A42980210A2000F079
:10410000C9FFDFF89C2990210A2000F0C3FFDFF8E7
:104110009429A0210A2000F0BDFF01BD80B5DFF881
:1041200088290021082000F0B5FFDFF84C29102174
:10413000002000F0AFFFDFF8742920210A2000F0F2
:10414000A9FFDFF86C2930210A2000F0A3FFDFF877
:10415000642940210A2000F09DFFDFF85C295021EE
:104160000A2000F097FFDFF8542970210A2000F0A0
:1041700091FFDFF84C2980210A2000F08BFFDFF847
:10418000442990210A2000F085FFDFF83C29A02176
:104190000A2000F07FFF01BDF8B50124FFF766FF9C
:1041A000C0A52A002021002000F074FF0020DFF8C5
:1041B0001C1908800020DFF81819088051E0002041
:1041C00001F0FEF90126641E2000C0B2002800D1D3
:1041D00002243800C0B201280CD100F0E7FD00F045
:1041E0006DF800F0E3FDFFF741FF2A0020210020D9
:1041F00000F050FFFFB2022F0CD100F0D7FD00F00D
:1042000039FA00F0D3FDFFF731FF2A0030210020FA
:1042100000F040FFF6B2002E23D027A63200202166
:10422000002000F037FF32003021002000F032FF84
:1042300032004021002000F02DFF320050210020EC
:1042400000F028FF32006021002000F023FF2A0048
:104250002000C0B200011030010089B2002000F03F
:1042600019FF00270026002001F0A6F90128A6D09A
:10427000012001F0A1F901280AD1012001F0A0F9E3
:104280000126641C2000C0B20328A2DB0124A0E7A1
:10429000022001F091F9012804D1022001F090F9E7
:1042A000270096E7032001F087F9012891D1032028
:1042B00001F086F90020F2BD200000002DE9FE4F3C
:1042C0000A2100226C462000FEF7A6FA01F034FA1B
:1042D0000124FFF7E5FE73A52A002021002000F04D
:1042E000D9FEDFF8F0676F46B7F9023032002021BF
:1042F000422000F045FFB7F904303200302142205F
:1043000000F03EFFBDF9063032004021422000F0AF
:1043100037FFBDF9083032005021422000F030FF55
:10432000DFF8A8870020A8F800000020DFF8A01719
:1043300008808EE0022001F03FF9012805D003201B
:1043400001F03AF9012840F00781022001F038F924
:10435000032001F035F92A005FFA8AFA5FEA0A1AA7
:104360001AF1100A514689B2002000F093FEB8F805
:1043700000000A2848DB0020A8F80000DFF85807F2
:10438000B0F9003032007021422000F0F9FEDFF871
:104390004C07B0F9003032008021422000F0F0FEDE
:1043A000DFF83C07B0F9003032009021422000F0E5
:1043B000E7FEDFF83007B0F900303200A0214220DC
:1043C00000F0DEFEDFF820A7DFF820070368524682
:1043D00070219A2000F0D4FEDFF8140703685246DB
:1043E00080219A2000F0CCFEDFF8080703685246CF
:1043F00090219A2000F0C4FEDFF8FC0603685246C4
:10440000A0219A2000F0BCFE5FFA89F9B9F1000FF3
:104410001FD00FF258294A462021002000F03AFE12
:104420004A463021002000F035FE4A464021002057
:1044300000F030FE4A465021002000F02BFE2A00FA
:104440002000C0B200011030010089B2002000F04D
:1044500021FE5FF0000A5FF00009002001F0ACF8D7
:10446000012821D1002001F0ABF85FF00109641EA2
:104470002000C0B2002800D104245046C0B2002859
:104480003FF475AF5046C0B20528BFF670AF78A2B2
:104490005046C0B200011030010089B2002000F087
:1044A000F9FDA6E03E000000012001F085F801289A
:1044B0000BD1012001F084F85FF00109641C200099
:1044C000C0B20528D9DB0124D7E7022001F074F837
:1044D000012804D1022001F073F8A246CDE70320A1
:1044E00001F06AF80128C8D1032001F069F801F051
:1044F00023F90020BDE8FE8F002001F061F82000C4
:10450000C0B237F8100064302100C9B227F811009A
:104510002000C0B237F9100042F21171884205DB69
:1045200042F210702100C9B227F811002000C0B279
:1045300037F910102000C0B201F0BAF82000C0B264
:1045400037F9103032002000C0B2000110300100F5
:1045500089B2422000F014FEB8F800000A2848DBB7
:104560000020A8F80000DFF87005B0F90030320034
:104570007021422000F004FEDFF86005B0F9003041
:1045800032008021422000F0FBFDDFF85405B0F935
:10459000003032009021422000F0F2FDDFF84405A7
:1045A000B0F900303200A021422000F0E9FDDFF830
:1045B00038B5DFF8380503685A4670219A2000F0B4
:1045C000DFFDDFF82C0503685A4680219A2000F0B1
:1045D000D7FDDFF8200503685A4690219A2000F0A5
:1045E000CFFDDFF8140503685A46A0219A2000F099
:1045F000C7FD002000F0E0FF01283FF47DAF01205F
:1046000000F0DAFF01287FF495AE012000F0D8FF1A
:104610002000C0B237F8100064382100C9B227F872
:1046200011002000C0B237F91000DFF8D014884222
:1046300005DADFF8C8042100C9B227F8110020000C
:10464000C0B237F910102000C0B201F031F82000DC
:10465000C0B237F9103032002000C0B20001103073
:10466000010089B2422000F08BFD75E720000000B8
:104670003D0000002DE9FE4F0A2100226C4620007B
:10468000FEF7CAF801F0E3F801F056F8DFF83C4411
:10469000002020800020DFF8381408800120DFF897
:1046A00060140870FFF73AFD80A52A002021002041
:1046B00000F0F0FCDFF84C646F46B7F902303200CE
:1046C0002021422000F05CFDB7F904303200302197
:1046D000422000F055FDB7F906303200402142205B
:1046E00000F04EFDB7F9083032005021422000F0B2
:1046F00047FD5FF001087FE0022000F05DFF012828
:1047000005D0032000F058FF012840F01D81022051
:1047100000F056FF032000F053FF2A005FFA8AFAE8
:104720005FEA0A1A1AF1100A514689B2002000F015
:10473000B1FC208808283ADB00202080DFF8C8A3DD
:10474000DFF8C80390ED010ABDEEC00A10EE103A82
:104750001BB2524620219A2000F012FDDFF8B00370
:1047600090ED010ABDEEC00A10EE103A1BB252469F
:1047700030219A2000F004FDDFF8980390ED010A43
:10478000BDEEC00A10EE103A1BB2524640219A20EC
:1047900000F0F6FCE04890ED010ABDEEC00A10EE14
:1047A000103A1BB2524650219A2000F0E9FC5FFA01
:1047B00089F9B9F1000F1FD00FF2B0294A46202124
:1047C000002000F067FC4A463021002000F062FC27
:1047D0004A464021002000F05DFC4A46502100205E
:1047E00000F058FC2A004046C0B200011030010021
:1047F00089B2002000F04EFC5FF0000A5FF0000973
:10480000002000F0D9FE012820D1002000F0D8FEC1
:104810005FF00109B8F101084046C0B2002801D19B
:104820005FF004085046C0B2002882D05046C0B2A3
:104830000528BFF67EAF8EA25046C0B200011030F0
:10484000010089B2002000F025FCB8E0012000F052
:10485000B3FE01280DD1012000F0B2FE5FF0010986
:1048600018F101084046C0B20528DBDB5FF0010803
:10487000D8E7022000F0A0FE012804D1022000F0B9
:104880009FFEC246CEE7032000F096FE0128C9D164
:10489000032000F095FE00209949087000F0D7FF32
:1048A00000F04AFF0020BDE8FE8F00BF3E00000080
:1048B000002000F085FE4046C0B237F810001430EA
:1048C0004146C9B227F811004046C0B237F910007E
:1048D00040F22131884205DB4FF448704146C9B2AD
:1048E00027F81100B7F9020000EE100AB8EEC00A6E
:1048F000864880ED000AB7F9040000EE100AB8EE11
:10490000C00A834880ED000AB7F9060000EE100ADD
:10491000B8EEC00A7F4880ED000AB7F9080000EE43
:10492000100AB8EEC00A7C4880ED000A4046C0B2CA
:1049300037F9103032004046C0B20001103001009B
:1049400089B2422000F01CFC2088082837DB0020B8
:104950002080DFF8B4B16D4890ED010ABDEEC00AC9
:1049600010EE103A1BB25A4620219A2000F008FCA3
:10497000674890ED010ABDEEC00A10EE103A1BB276
:104980005A4630219A2000F0FBFB624890ED010A64
:10499000BDEEC00A10EE103A1BB25A4640219A20D2
:1049A00000F0EEFB5C4890ED010ABDEEC00A10EE8F
:1049B000103A1BB25A4650219A2000F0E1FB002029
:1049C00000F0FAFD01283FF473AF012000F0F4FD80
:1049D00001287FF491AE012000F0F2FD4046C0B204
:1049E00037F8100014384146C9B227F81100404684
:1049F000C0B237F9100010F5487F04DA4748414645
:104A0000C9B227F81100B7F9020000EE100AB8EE9B
:104A1000C00A3E4880ED000AB7F9040000EE100A13
:104A2000B8EEC00A3A4880ED000AB7F9060000EE79
:104A3000100AB8EEC00A374880ED000AB7F908003E
:104A400000EE100AB8EEC00A334880ED000A404676
:104A5000C0B237F9103032004046C0B20001103009
:104A6000010089B2422000F08BFB6DE720000000BE
:104A70003D0000000CB608104CB2081014B6081027
:104A800064B50810E8B4081070B508107CB50810BB
:104A900088B5081094B5081058B3081070B3081002
:104AA00088B30810A0B30810D4B40810B8B3081025
:104AB000D0B30810E8B3081000B4081018B40810F8
:104AC00030B4081048B4081060B408102C1C022838
:104AD0002E1C02281CB60810301C0228321C02288A
:104AE000341C0228361C022824B60810E81B0228B1
:104AF000EC1B0228F01B0228F41B0228F0D8FFFF51
:104B00003C1C02282CB6081034B6081028070228CE
:104B10005C07022890070228C4070228E0FCFFFF78
:104B2000DFF82C16C0B20860704710B50100DFF83E
:104B30001006007800280CD10820DFF80826106045
:104B4000C9B2012001F038F90820DFF80816086022
:104B500019E0DFF8F405082202601022DFF8E435DE
:104B60001A60DFF8E8450422226002220260080091
:104B7000C0B2FFF7D5FF022020600820206010207F
:104B8000DFF8D015086010BD10B50100DFF8B005E2
:104B90000078002804D1C9B2012001F00DF911E01C
:104BA000DFF8A40508220260DFF8A0450422226095
:104BB000022202600800C0B2FFF7B2FF02202060AC
:104BC0000820206010BD70B50400DFF8740500787F
:104BD000002805D1210089B2012001F042F91BE033
:104BE000DFF8646508203060DFF860550420286035
:104BF00002203060200080B2000AC0B2FFF790FFB0
:104C000002202860022030602000C0B2FFF788FF39
:104C1000022028600820286070BDF8B504000D004F
:104C2000DFF81C050078002805D12A0021000120AA
:104C300001F06CF921E0DFF8106508203060DFF842
:104C40000C750420386012E002203060208880B2A9
:104C5000000AC0B2FFF764FF022038600220306013
:104C60002088C0B2FFF75CFF02203860A41C280037
:104C7000451E0028E8D108203860F1BD2DE9F04735
:104C8000060015001F00DFF8D0843000B8F80020BF
:104C900080B2904201D2012000E000200C00DFF839
:104CA000BC9440F249124946C0B2FDF734FDDFF82A
:104CB000B0A42000BAF8001080B2884201D20120CE
:104CC00000E000204FF4A5724946C0B2FDF723FD75
:104CD0002800B8F8001080B2884201D2012000E01C
:104CE000002040F24B124946C0B2FDF714FD3800D7
:104CF000BAF8001080B2884201D2012000E0002002
:104D00004FF4A6724946C0B2FDF705FD2A20FFF711
:104D10000CFF300080B2FFF756FF280080B2FFF78B
:104D200052FF2B20FFF701FF200080B2FFF74BFF5F
:104D3000380080B2FFF747FF2C20FFF7F6FEBDE8F2
:104D4000F08700B585B06846FDF703FD0120ADF89A
:104D50000000DFF804040088ADF80200DFF800046A
:104D60000088ADF80400DFF800040078002803D0C4
:104D700002280FD007D30DE006208DF8060008208A
:104D80008DF8070006E008208DF8060010208DF849
:104D90000700FFE70FF2FD2003900FF211000490CF
:104DA0006846FDF7E6FC05B000BD00002DE9F041C6
:104DB000DFF8A4532888400001F074FA04000020B2
:104DC0000020DFF87C633078002803D10820DFF86A
:104DD00078130860DFF888733888431E9BB22888F0
:104DE000421E92B200210020FFF748FF002007E09A
:104DF000DFF870130988020092B224F81210401CE8
:104E000001002A8889B29142F2D35FF0000805E0E0
:104E100029882000FFF701FF18F101084046398872
:104E200080B28842F4D33078002803D10820DFF81C
:104E30001C130860200001F03EFABDE8F081DFF8A5
:104E40002C13087008780028012803D9801E012837
:104E50000AD912E0F020DFF8001308804FF4A070A8
:104E6000DFF8FC12088008E04FF4A070DFF8E812C9
:104E70000880F020DFF8E81208807047DFF8F022A1
:104E80001080DFF8E00201807047F8B5D8B0050067
:104E90000E0014002800DFF8C012098880B2884292
:104EA00001D2012000E00020DFF8B07240F25D2264
:104EB0003900C0B2FDF72FFC3000DFF8A4120988DA
:104EC00080B2884201D2012000E0002040F25E2240
:104ED0003900C0B2FDF71FFC00200020DFF860722F
:104EE0003878002803D10820DFF85C120860DFF86A
:104EF00078020078002804D0022800F0C18047D34F
:104F0000BEE0F31D9BB26A1D92B2310089B2280047
:104F100080B2FFF7B3FE002000E0401C0100C9B2E0
:104F2000062930DA0621DFF84C222300DBB24B439E
:104F30001A440300DBB21A4412F8C02C00230CE020
:104F400040AD1E00F6B24E4356FA80F6DFF814C2AA
:104F5000BCF800C025F816C011E01D00EDB2082D08
:104F6000DBDAD507ECD540AD1E00F6B24E4356FA5B
:104F700080F6DFF8FCC1BCF800C025F816C0D2B23C
:104F800052085B1CE9E7302140A8FFF746FE77E0B6
:104F900016F10F039BB2EA1D92B2310089B22800CC
:104FA00080B2FFF76BFE002000E0401C0100C9B298
:104FB000082960DADFF8C0212100C9B209011144D3
:104FC0000300DBB21944B1F5007109782300DBB2AC
:104FD0001B011A440300DBB21A44B2F5FC721278CA
:104FE00000231DE06D461E00F6B2F60056FA80F66C
:104FF000DFF870C1BCF800C025F816C00DE0CD0781
:10500000F0D56D461E00F6B2F60056FA80F6DFF8CF
:1050100060C1BCF800C025F816C0C9B249085B1CC5
:105020001D00EDB2082DEADB00210DE06B460D00FE
:10503000EDB2ED0055FA80F503EB4503DFF824519E
:105040002D88A3F8805012E00B00DBB2082BACDAFD
:10505000D307EBD56B460D00EDB2ED0055FA80F5A8
:1050600003EB4503DFF808512D88A3F88050D2B236
:105070005208491CE8E780216846FFF7CEFDFFE7AC
:105080003878002802D108203049086059B0F0BDB6
:1050900000000000F8B504000E0015002000DFF845
:1050A000B810098880B2884201D2012000E00020B7
:1050B000DFF8A87040F2BA223900C0B2FDF72BFB2E
:1050C0003000DFF89C10098880B2884201D20120AC
:1050D00000E0002040F2BB223900C0B2FDF71BFB0C
:1050E00000270EE00CE0380080B22A5C310089B263
:1050F000380080B2C00010FA84F080B2FFF7C5FE1D
:105100007F1C380080B2285C002817D0DFF86C00C4
:105110000078002803D00228E4D0E4D3F0E7380078
:1051200080B22A5C310089B23B009BB20620434327
:1051300013FA84F080B2FFF7A8FEE1E7F1BD0000AA
:10514000451C0228040B314004063140080631405A
:1051500080063140080B3140A8080228D4AE081060
:10516000AA080228AE080228B5080228461C022810
:10517000AC080228A89D0810CC840810B5080228A5
:1051800008B430B5C0B004000D00110043AA684651
:1051900001F094F86A46290089B2200080B2FFF736
:1051A00079FF40B030BC5DF808FBFEB5C0B2002806
:1051B00030D10020CF490870D34CB4202070D34D9B
:1051C00058202870D24E63203070082002900420AE
:1051D0000190012000900123CE4A0021012000F01F
:1051E000FDFE032300220121B32001F0C3F80323B5
:1051F00000220121207801F0BDF8032301220121C2
:10520000307801F0B7F8032301220121287801F05A
:10521000B1F85FE00120B7490870BB48B3210170C5
:10522000BA4C58212170BA4D632129700323002202
:105230000121007801F09EF803230022012120784B
:1052400001F098F8032301220121287801F092F857
:10525000032300220121622001F08CF803230022A5
:105260000121612001F086F8032301220121B420ED
:1052700001F080F8032301220121682001F07AF86F
:10528000032301220121692001F074F80323012284
:1052900001216A2001F06EF80323012201216B2015
:1052A00001F068F80323012201216C2001F062F86B
:1052B0000323012201216D2001F05CF80323012268
:1052C00001216E2001F056F80323012201216F20F5
:1052D00001F050F8904C2078FFF7B1FD8848018824
:1052E00088480088FFF7CAFD8C4D01268748017861
:1052F00011F0070116FA01F10078C01015EBC0108B
:105300000160814F387810F0070016FA00F0397804
:10531000C910834A12EBC1121060052001F022F976
:10532000387810F0070086403878C01015EBC015AB
:105330002E60782001F016F96E4D2878002802D1F1
:1053400008206D4908601120FFF7EFFB782001F07D
:1053500009F93620FFF7E9FB2078002805D002285C
:105360000BD006D303280CD00EE00020FFF70CFC76
:105370000AE0C020FFF708FC06E07020FFF704FCFD
:1053800002E0A020FFF700FC3A20FFF7CEFB05204B
:10539000FFF7FAFBB220FFF7C8FB0C20FFF7F4FB86
:1053A0000C20FFF7F1FB0020FFF7EEFB3320FFF7A7
:1053B000EBFB3320FFF7E8FBB720FFF7B6FB352008
:1053C000FFF7E2FBBB20FFF7B0FB2920FFF7DCFB78
:1053D000C220FFF7AAFB0120FFF7D6FBC320FFF78F
:1053E000A4FB1920FFF7D0FBC420FFF79EFB202071
:1053F000FFF7CAFBC520FFF798FB1A20FFF7C4FB95
:10540000C620FFF792FB1F20FFF7BEFBD020FFF75F
:105410008CFBA420FFF7B8FBA120FFF7B5FBE02031
:10542000FFF783FBD020FFF7AFFB0820FFF7ACFBB3
:105430000E20FFF7A9FB0920FFF7A6FB0920FFF7C5
:10544000A3FB0520FFF7A0FB3120FFF79DFB3320D6
:10545000FFF79AFB4820FFF797FB1720FFF794FB15
:105460001420FFF791FB1520FFF78EFB3120FFF78B
:105470008BFB3420FFF788FBE120FFF756FBD020A1
:10548000FFF782FB0820FFF77FFB0E20FFF77CFB76
:105490000920FFF779FB0920FFF776FB1520FFF7BE
:1054A00073FB3120FFF770FB3320FFF76DFB4820C3
:1054B000FFF76AFB1720FFF767FB1420FFF764FB79
:1054C0001520FFF761FB3120FFF75EFB3420FFF76B
:1054D0005BFB2120FFF729FB2920FFF726FB28781B
:1054E000002802D1082005490860FFF75FFCFFF79C
:1054F00028FCF7BD451C022804063140080631404F
:10550000AE080228AC080228B6080228B70802280C
:10551000B808022880C3C901461C0228080031408F
:105520000400314010B5002000241FE000212200BB
:10553000D2B2815413E037482100C9B2415C02293C
:10554000F4D035492200D2B251F822100A3940F283
:10555000DE329142EAD201212200D2B281540020EF
:105560002D492200D2B241F82200641C2000C0B2B2
:10557000042820DA29482100C9B2405C00F0E9FE85
:105580000128D8D024492000C0B251F82020244856
:10559000006882182000C0B241F820202000C0B26C
:1055A00051F82000B0F57A7FDFD30220194922009C
:1055B000D2B28854D9E710BD1649C0B2085C704712
:1055C0000021144AC0B21154704770B50400002C79
:1055D00001D0012000E000208C221249C0B2FDF76A
:1055E0009AF8002000250EE00123012200210B483B
:1055F0002E00F6B2805D00F0BDFE002005492A00B5
:10560000D2B288546D1C2800C0B20428ECDB0448D8
:10561000046070BD181C0228B01B02280CB70810CB
:10562000141C022870AF081010B5032300220121BA
:10563000292000F09FFE0323002201212B2000F0EF
:1056400099FE032300220121532000F093FE03233F
:1056500000220121492000F08DFE42F21074002248
:1056600021000D20FCF7CEFD002221000F20FCF7C9
:10567000C9FD002221002C20FCF7C4FD00222100DE
:105680002120FCF7BFFD01220121012001F03CF99E
:1056900000220021002001F037F90322032103201A
:1056A00001F032F902220221022001F02DF910BD91
:1056B00010B50200D2B2012A06D015D3032A0DD0AC
:1056C00007D3042A0DD00FE029230D2009B2494247
:1056D0000AE02B230F2009B2494205E053232C2076
:1056E00002E049232120FFE70A0012B2012A0ADB67
:1056F000012413F007029440DBB2DB10174A12EBCF
:10570000C31214600BE0012413F007029440DBB2D3
:10571000DB10134A12EBC312146009B249420A00AB
:1057200012B242F211739A4201DB42F2107189B255
:10573000C0B2FCF73AFD10BD80B500210120FFF793
:10574000B7FF00210220FFF7B3FF00210320FFF77E
:10575000AFFF00210420FFF7ABFF01BD080031407F
:10576000040031400021016000214160002181607E
:10577000002181610021C16100210162002141629B
:105780007047C16901628169C16190ED000AD0ED85
:10579000010A30EE600A80ED060A90ED060AD0EDAF
:1057A000070A30EE600AD0ED030A20EE200AD0EDA1
:1057B000040A90ED061A00EE810AD0ED070AB8EE51
:1057C000001AD0ED061A40EE811AD0ED080A71EEEB
:1057D000A00A90ED051A00EE810AD0ED0C0AF5EE54
:1057E000400AF1EE10FA15DDD0ED0C0AF4EE400A95
:1057F000F1EE10FA01D590ED0C0AD0ED0C0AF1EEA5
:10580000600AB4EE600AF1EE10FA03D590ED0C0ACE
:10581000B1EE400AD0ED020A30EE800A80ED020AB5
:1058200090ED0A0AD0ED020AB4EE600AF1EE10FA29
:1058300001D5816A816090ED020AD0ED0B0AB4EEC9
:10584000600AF1EE10FA01D5C16A8160704780B537
:105850002548FFF787FF2548FFF784FF2448FFF717
:1058600081FF2448FFF77EFF01BDF8B5224800788C
:10587000002837D01C4C2000FFF783FF1B4D280069
:10588000FFF77FFF1A4E3000FFF77BFF194F3800FC
:10589000FFF777FF94ED020ABDEEC00A10EE101A72
:1058A00009B20120FFF704FF95ED020ABDEEC00A20
:1058B00010EE101A09B20220FFF7FAFE96ED020A66
:1058C000BDEEC00A10EE101A09B20320FFF7F0FE79
:1058D00097ED020ABDEEC00A10EE101A09B20420BC
:1058E000FFF7E6FEF1BD0000280702285C0702284A
:1058F00090070228C40702283C1C0228C0F8401266
:105900007047D0F80802C005C00D7047D0F80802F3
:10591000C0F3C030704738B505002800FFF7F1FF2D
:1059200004002800FFF7F2FF0419002C01D1012028
:1059300000E00020C0B232BD0068C0F38130002812
:1059400001D1802000E040207047016851F0004103
:10595000016070472030026861F39B62026070470B
:10596000022801D3012010E00B00DBB2042B01DB85
:1059700001200AE0DFF84C3603EB8000C9B2405C3E
:10598000824201D3012000E000207047F8B50400F6
:105990000F0015001E00022C01D301202AE02A006E
:1059A0003900C9B22000FFF7DBFF012801D1012037
:1059B00020E006983900C9B202291ED1B6F5803F11
:1059C00019D2202817D24FF4C052DFF8FC15630318
:1059D0000B4403EB850313441F6866F317271F600E
:1059E0006403214401EB850111440A6860F3C70296
:1059F0000A600020F2BD0120FCE7FFB2032F1FD197
:105A0000B6F1807F1AD2202818D24FF4E052DFF886
:105A1000B81563030B4403EB850313441F6807F0B9
:105A2000FF0757EA06271F606403214401EB850145
:105A300011440A6860F3C7020A60DAE70120D9E777
:105A40000120D7E700B20012C0B27047F8B50500D8
:105A50000E001700280000B2FFF7F4FF040020003A
:105A6000C0B2022801D3012024E03A003100C9B2BB
:105A70002000C0B2FFF774FF012801D1012019E016
:105A8000DFF844152000C0B2400308442A00D2B217
:105A900000EB8200D0F8000CF6B266F3092067F341
:105AA0000700E4B264032144EDB201EB8501C1F8C3
:105AB000000C0020F2BD70B504000D001600022C91
:105AC00001D301201DE032002900C9B22000FFF7F8
:105AD00047FF012801D1012013E0DFF8EC14600337
